:020000040800F2
:100000000090002025910108759101087591010863
:1000100000000000000000000000000000000000E0
:1000200000000000000000000000000075910108C1
:100030000000000000000000759101087F05010824
:100040007591010800000000595F010875910108D1
:1000500075910108690701087D07010891070108EA
:100060000000000075910108759101087591010863
:1000700075910108C5540108DD5401080000000015
:10008000F55401080D550108255501083D55010895
:10009000555501086D55010885550108ADFD00084D
:1000A000C5FD000875910108759101084513010807
:0800B0005D130108791301083A
:1000B80002780B78002A03D0013001319A42F7D038
:1000C800D01A70470023C25C0133002AFBD1581EA6
:1000D8007047000003B47146490840004900095EB2
:1000E80049008E4403BC7047002243088B4274D3F6
:1000F80003098B425FD3030A8B4244D3030B8B4221
:1001080028D3030C8B420DD3FF22090212BA030C29
:100118008B4202D31212090265D0030B8B4219D30A
:1001280000E0090AC30B8B4201D3CB03C01A52412A
:10013800830B8B4201D38B03C01A5241430B8B4272
:1001480001D34B03C01A5241030B8B4201D30B035B
:10015800C01A5241C30A8B4201D3CB02C01A524182
:10016800830A8B4201D38B02C01A5241430A8B4245
:1001780001D34B02C01A5241030A8B4201D30B022E
:10018800C01A5241CDD2C3098B4201D3CB01C01A48
:10019800524183098B4201D38B01C01A5241430952
:1001A8008B4201D34B01C01A524103098B4201D340
:1001B8000B01C01A5241C3088B4201D3CB00C01AAD
:1001C800524183088B4201D38B00C01A5241430825
:1001D8008B4201D34B00C01A5241411A00D201464A
:1001E800524110467047FFE701B5002000F0F0F8D3
:1001F80002BDC0460029F7D076E7704703460B4397
:100208007FD4002243088B4274D303098B425FD307
:10021800030A8B4244D3030B8B4228D3030C8B4233
:100228000DD3FF22090212BA030C8B4202D3121219
:10023800090265D0030B8B4219D300E0090AC30BEE
:100248008B4201D3CB03C01A5241830B8B4201D39B
:100258008B03C01A5241430B8B4201D34B03C01A84
:100268005241030B8B4201D30B03C01A5241C30AFC
:100278008B4201D3CB02C01A5241830A8B4201D36D
:100288008B02C01A5241430A8B4201D34B02C01A57
:100298005241030A8B4201D30B02C01A5241CDD2FC
:1002A800C3098B4201D3CB01C01A524183098B4247
:1002B80001D38B01C01A524143098B4201D34B0130
:1002C800C01A524103098B4201D30B01C01A524193
:1002D800C3088B4201D3CB00C01A524183088B421A
:1002E80001D38B00C01A524143088B4201D34B0003
:1002F800C01A5241411A00D2014652411046704775
:100308005DE0CA0F00D04942031000D34042534079
:1003180000229C4603098B422DD3030A8B4212D339
:10032800FC22890112BA030A8B420CD3890192116B
:100338008B4208D3890192118B4204D389013AD0A8
:10034800921100E08909C3098B4201D3CB01C01A7D
:10035800524183098B4201D38B01C01A5241430990
:100368008B4201D34B01C01A524103098B4201D37E
:100378000B01C01A5241C3088B4201D3CB00C01AEB
:10038800524183088B4201D38B00C01A5241D9D203
:1003980043088B4201D34B00C01A5241411A00D284
:1003A8000146634652415B10104601D34042002B80
:1003B80000D54942704763465B1000D3404201B5FF
:1003C800002000F005F802BD0029F8D016E77047B4
:1003D8007047C0461C2101231B04984201D3000C1E
:1003E80010391B0A984201D3000A08391B099842A0
:1003F80001D30009043902A2105C40187047C046B6
:1004080004030202010101010000000000000000D5
:10041800002B11D1002A0FD1002900D1002802D0C9
:100428000021C943080007B4024802A140180290FD
:1004380003BDC0469DFFFFFF03B4684601B502989F
:100448001BF04CF8019B9E4602B00CBC7047C0469E
:1004580010B5002903D1FFF7BDFF203002E00800E6
:10046800FFF7B8FF10BDC04610B5064C2378002B27
:1004780007D1054B002B02D0044800E000BF012340
:10048800237010BDA00100200000000084B6010800
:10049800044B10B5002B03D00349044800E000BF0B
:1004A80010BDC04600000000A401002084B6010869
:1004B8000020704710B50368DC6B4B23A04710BDC4
:1004C800014B083303607047F4BA010810B582B0D5
:1004D8006B46D97107330268546801221900A04796
:1004E80002B010BD10B5036918680368DB68984747
:1004F80010BD00B583B00368DB6A01226946073185
:100508009847012803D16B46D87903B000BD012074
:100518004042FAE7436E9C4660442023C05C704723
:1005280010B5040003681B699847002801D1207F93
:1005380010BD0120FCE710B503685B6B9847431EAC
:100548009841C0B210BD0000F0B5C64600B588B0ED
:10055800050090461F4801901F4A01924B6802937C
:100568002968CE6B03AC0390039204931B4905A83A
:1005780019F0BBFB102105A819F08BFB217905A800
:1005880019F079FC164F390005A819F058FC617963
:1005980005A819F070FC390005A819F050FCA179DC
:1005A80005A819F068FC390005A819F048FCE1799C
:1005B80005A819F060FC4B23424605992800B0476E
:1005C800040005A819F043FB200008B080BCB84619
:1005D800F0BDC04610BA0108D4D3010838BC0108E0
:1005E8009CB6010810B50400FFF76AFFA42120009B
:1005F80015F010F8200010BD00B583B0012801D017
:1006080003B000BD054B9942FAD1002100910B00BF
:100618000A00034819F024F9F2E7C046FFFF00007A
:10062800BC010020F0B5DE4657464E464546E0B5CB
:10063800BFB00400059115009846489B9A46499B0F
:100648009B46CC490EA819F050FB40210EA819F082
:1006580020FB19F017FE0490002019F017FE9AE00D
:100668000026002E03D0002629A819F0F0FA002E43
:1006780000D06CE34346002B0DD0414626A819F064
:1006880034FB26A90EA819F03CFC00281CD1012730
:1006980002E00126E8E73700002F03D026A819F06A
:1006A800D6FA3700002F00D05EE35346002B0DD05A
:1006B800514623A819F019FB23A90EA819F021FC0B
:1006C80000281CD1012602E00126E7E73E00002EA3
:1006D80003D023A819F0BBFA3E00002E00D045E352
:1006E8005B46002B0DD0594620A819F0FEFA20A928
:1006F8000EA819F006FC00281CD1012702E00127EA
:10070800E7E73700002F03D020A819F0A0FA370038
:10071800002F00D02CE34A9B002B0DD019001DA8F8
:1007280019F0E3FA1DA90EA819F0EBFB002857D120
:10073800012302E00126E7E73B00002B03D01DA8B8
:1007480019F085FA3B00002B00D013E38A491AA858
:1007580019F0CBFA1AA90EA819F0D3FB06001AA8AB
:1007680019F075FA002E62D0206803681E6A072304
:100778000BAA2C21B0470300421E052A32D80BA829
:100788000022C25419F0A8FD01B249B201292BD0A8
:100798000EA819F082FB206803681B699847002897
:1007A80000DCC3E2002019F071FD206803685B6972
:1007B800984743B2002BEEDDC1B20EA819F04EFBEC
:1007C800002D00D14CE7290029A819F08EFA29A993
:1007D8000EA819F096FB002800D05AE7012640E73A
:1007E8000127ACE76549D0E7206803681E6A07233C
:1007F8000BAA0931B0470300421E052A15D80BA8D9
:100808000022C25419F068FD00B243B2C0B20928F0
:1008180006D89B00E3185B68002B01D001225A77A9
:1008280054490EA819F0CCFAB5E75448EDE75449F5
:1008380017A819F05AFA17A90EA819F062FB0600B2
:1008480017A819F004FA002E3FD0206803681E6A22
:1008580007230BAA2C21B0470300421E052A30D8D3
:100868000BA80022C25419F037FD06B277B22068EF
:1008780003681B6A994607230BAA0A21C847030085
:10088800421E052A1FD80BA80022C25419F024FDC5
:1008980000B2F6B2092E0FD8BB00E3185B68002B34
:1008A8000AD001225A7780B28023DB00984203D80D
:1008B800BF00E7197B68D8822E490EA819F080FA84
:1008C80069E72E4ED2E72D48E3E72E4914A819F020
:1008D8000CFA14A90EA819F014FB060014A819F0B4
:1008E800B6F9002E50D0206803681E6A07230BAAA9
:1008F8002C21B0470300421E052A0BD80BA8002262
:10090800C25419F0E9FC06B273B2994619F0BAFC60
:10091800070007E0194EF7E7206803685B69984706
:100928000A2816D019F0AEFCC01BFA239B00984287
:100938000FD219F0A7FCC01BFA239B009842EBD2F8
:10094800206803681B6998470028E5D119F09EFCC8
:10095800EFE7F6B2092E07D84B469B00E3185B6811
:10096800002B01D000221A7702490EA819F028FAA4
:1009780011E7C04638BC0108A0B60108F1D8FFFF4E
:10098800B0B60108BCB60108D44911A819F0ADF9F0
:1009980011A90EA819F0B5FA060011A819F057F90F
:1009A800002E00D1F7E6200000F0E8F906900028B4
:1009B80004D0CB490EA819F003FAECE6E66AC94957
:1009C800206818F099FFC849206818F095FF310091
:1009D800206818F091FF20680368DB6898470020BA
:1009E80019F054FCBE4908A819F07FF9402108A85D
:1009F80019F04FF919F046FC0790002019F046FC51
:100A080071E0069E90E0B949C6E0206803681E6A56
:100A180007230BAA0931B0470300421E052A15D83F
:100A28000BA80022C25419F057FC00B243B2C0B25E
:100A3800092806D89B00E3185B68002B01D0012227
:100A48005A77A74908A819F0BBF94CE0A748EDE781
:100A5800A74932A819F049F932A908A819F051FA9A
:100A6800060032A819F0F3F8002E00D1A0E02068A3
:100A780003681E6A07230BAA2C21B0470300421EF5
:100A8800052A00D990E00BA80022C25419F024FCD2
:100A980006B277B2206803681B6A994607230BAA37
:100AA8000A21C8470300421E052A7FD80BA8002246
:100AB800C25419F011FC00B2F6B2092E0FD8BB00CF
:100AC800E3185B68002B0AD001225A7780B2802392
:100AD800DB00984203D8BF00E7197B68D8828049B9
:100AE80008A819F06DF9206803681B699847002861
:100AF80000DC07E1002019F0C9FB206803685B6986
:100B0800984743B2002BEEDDC1B208A819F0A6F948
:100B180078493BA819F0E9F83BA908A819F0F1F9B8
:100B2800002800D16DE701263BA819F090F8002EA7
:100B380000D0F7E0704938A819F0D7F838A908A804
:100B480019F0DFF9002800D0013638A819F07FF82D
:100B5800002E00D0E6E0694935A819F0C6F835A995
:100B680008A819F0CEF9060035A819F070F8002E7B
:100B780000D16DE7206803681E6A07230BAA2C21A1
:100B8800B0470300421E052A00D93CE70BA8002203
:100B9800C25419F0A1FB01B249B2012900D134E7CE
:100BA80008A819F07AF99EE7504E72E74F4883E794
:100BB80053492FA819F099F82FA908A819F0A1F9F5
:100BC80006002FA819F043F8002E44D020680368C7
:100BD8001E6A07230BAA2C21B0470300421E052AD0
:100BE8000BD80BA80022C25419F076FB07B27BB2CF
:100BF800994619F047FB060016E03C4FF7E719F055
:100C080045FB19F03FFB801BFA239B00984205D255
:100C1800206803681B6998470028F0D0206803689B
:100C28005B6998470A2806D019F02CFB801BFA2329
:100C38009B009842E5D3FFB2092F07D84B469B008B
:100C4800E3185B68002B01D000221A77244908A812
:100C580019F0B6F847E721492CA819F046F82CA94D
:100C680008A819F04EF906002CA818F0F0FF002E7D
:100C780000D138E7200000F081F8002804D0184996
:100C880008A819F09DF82EE7E66A1649206818F0BA
:100C980033FE1549206818F02FFE3100206818F03F
:100CA8002BFE20680368DB689847002019F0EEFAED
:100CB8000B490BA819F019F8FA21002303930293A2
:100CC80001930D4B00930B4B0BAAC900200000F0B9
:100CD800DBFB0BA818F0BBFFD1E7C046C8B601087C
:100CE80038BC0108D4B60108D8B60108F1D8FFFF0E
:100CF800B0B60108E4B60108ECBA0108A0B60108CC
:100D0800BCB6010819F0BEFA079BC01AFA23DB002B
:100D1800984200D271E608A819F05AF9164908A8AD
:100D280019F04EF808A818F092FF42E619F0AAFA4E
:100D3800049BC01A059B834200D98DE40EA819F0C4
:100D480047F90D490EA819F03BF8002000E00120F2
:100D580044B20EA818F07BFF20003FB0F0BCBB46A1
:100D6800B246A946A046F0BD0220F1E70320EFE70E
:100D78000420EDE70520EBE738BC0108F0B5CE46C6
:100D8800474680B5B5B00600C46AD349006818F074
:100D9800B3FDD249306818F0AFFD2100306818F073
:100DA800ABFD30680368DB689847002019F06EFADD
:100DB800CB4907A818F099FF402107A818F069FF48
:100DC80019F060FA0590002019F060FA08E0002494
:100DD80026E0C4495AE0C3486CE007A819F05DF85A
:100DE800306803681B699847002800DCE3E20020AC
:100DF80019F04CFA306803685B69984743B2002BD6
:100E0800EEDDC1B207A819F029F8B7491FA818F0F4
:100E18006CFF1FA907A819F074F80028D7D001247F
:100E28001FA818F014FF002C00D0D6E2AF491CA868
:100E380018F05BFF1CA907A819F063F8002800D078
:100E480001341CA818F003FF002C00D0D2E2A849F6
:100E580019A818F04AFF19A907A819F052F80400B0
:100E680019A818F0F4FE002C34D0306803681C6A06
:100E780007230DAA2C21A0470300421E052AA8D843
:100E88000DA80022C25419F027FA01B249B201296B
:100E9800A3D1306803681C6A07230DAA0931A0474B
:100EA8000300421E052A96D80DA80022C25419F044
:100EB80013FA00B243B2C0B2092806D89B00F3184F
:100EC8005B68002B01D001225A77854907A818F0E2
:100ED80077FF85E7874916A818F007FF16A907A81E
:100EE80019F00FF8040016A818F0B1FE002C3ED037
:100EF800306803681C6A07230DAA2C21A047030049
:100F0800421E052A2FD80DA80022C25419F0E4F970
:100F180004B267B2306803681D6A07230DAA0A2164
:100F2800A8470300421E052A1FD80DA80022C25454
:100F380019F0D2F900B2E4B2092C0FD8BB00F318AB
:100F48005B68002B0AD001225A7780B28023DB002D
:100F5800984203D8BF00F7197B68D882604907A870
:100F680018F02EFF3CE75F4CD3E75E48E3E76249A1
:100F780013A818F0BAFE13A907A818F0C2FF0400B6
:100F880013A818F064FE002C42D0306803681C6A6D
:100F980007230DAA2C21A0470300421E052A0AD8C0
:100FA8000DA80022C25419F097F904B265B219F0DD
:100FB80069F9070016E04B4CF8E719F067F919F0E2
:100FC80061F9C01BFA239B00984205D23068036878
:100FD8001B6998470028F0D0306803685B69984718
:100FE8000A2806D019F04EF9C01BFA239B00984234
:100FF800E5D3E4B2092C06D8AB00F3185B68002BE4
:1010080001D000221A77364907A818F0D9FEE7E67A
:101018003A4910A818F069FE10A907A818F071FF3E
:10102800040010A818F013FE002C00D1D8E63000F8
:10103800FFF7A4FE041E04D0294907A818F0C0FE33
:10104800CEE6F76A2449306818F056FC2C49306817
:1010580018F052FC3900306818F04EFC306803680C
:10106800DB689847002019F011F91D490AA818F003
:101078003CFE40210AA818F00CFE19F003F981463D
:10108800002019F003F988E02700A7E01549DDE002
:10109800306803681F6A07230DAA0931B84703009F
:1010A800421E052A15D80DA80022C25419F014F9B9
:1010B80000B243B2C0B2092806D89B00F3185B6897
:1010C800002B01D001225A7705490AA818F078FEAA
:1010D80063E00448EDE7C046D4B60108F4B6010859
:1010E80038BC0108F1D8FFFF00B70108ECBA0108C5
:1010F800A0B60108B0B60108BCB60108C8B6010818
:10110800D8B60108D44928A818F0EFFD28A90AA8DC
:1011180018F0F7FE070028A818F099FD002F00D155
:10112800A0E0306803681F6A07230DAA2C21B8477E
:101138000300421E052A00D990E00DA80022C254DF
:1011480019F0CAF807B27DB2306803681B6A98467E
:1011580007230DAA0A21C0470300421E052A7FD88B
:101168000DA80022C25419F0B7F800B2FFB2092F37
:101178000FD8AB00F3185B68002B0AD001225A770E
:1011880080B28023DB00984203D8AB00F3185B6879
:10119800D882B2490AA818F013FE306803681B69A0
:1011A8009847002800DCF2E0002019F06FF830685A
:1011B80003685B69984743B2002BEEDDC1B20AA809
:1011C80018F04CFEA64931A818F08FFD31A90AA8DD
:1011D80018F097FE002800D156E7012731A818F02B
:1011E80036FD002F00D0E2E09E492EA818F07DFDC4
:1011F8002EA90AA818F085FE002800D001372EA8CD
:1012080018F025FD002F00D0D1E097492BA818F041
:101218006CFD2BA90AA818F074FE07002BA818F07B
:1012280016FD002F00D16DE7306803681F6A072399
:101238000DAA2C21B8470300421E052A00D925E72C
:101248000DA80022C25419F047F801B249B2012989
:1012580000D11DE70AA818F020FE9EE7834F72E729
:10126800824883E7824925A818F03FFD25A90AA8E6
:1012780018F047FE070025A818F0E9FC002F44D015
:10128800306803681F6A07230DAA2C21B84703009A
:10129800421E052A0BD80DA80022C25419F01CF8CA
:1012A80007B27BB2984618F0EDFF050016E06F4FC5
:1012B800F7E718F0EBFF18F0E5FF401BFA239B0057
:1012C800984205D2306803681B6998470028F0D017
:1012D800306803685B6998470A2806D018F0D2FF7F
:1012E800401BFA239B009842E5D3FFB2092F07D889
:1012F80043469B00F3185B68002B01D000221A7745
:1013080056490AA818F05CFD47E75A4922A818F080
:10131800ECFC22A90AA818F0F4FD070022A818F08E
:1013280096FC002F00D138E73000FFF727FD002892
:1013380004D04A490AA818F043FD2EE7F76A4E4937
:10134800306818F0D9FA4D49306818F0D5FA3900E4
:10135800306818F0D1FA30680368DB6898470020D5
:1013680018F094FF3D490DA818F0BFFCFA2100239E
:101378000393029301933B4B0093394B0DAAC90089
:10138800300000F081F80DA818F061FCD1E718F0E2
:1013980079FF4B46C01AFA23DB00984200D26FE669
:1013A8000AA818F015FE2D490AA818F009FD0AA880
:1013B80018F04DFC40E618F065FF059BC01AFA23AB
:1013C8009B00984200D2FEE407A818F001FE2349CA
:1013D80007A818F0F5FC002400E0012464B207A86F
:1013E80018F035FC012C07D0002035B0C0BCB94638
:1013F800B046F0BD0224F1E71A4B9846204FFA2573
:10140800AD0000240294019400943A0029003000B1
:10141800FFF708F9F36A99461749306818F06CFA2B
:101428001849306818F068FA4946306818F064FAC4
:1014380030680368DB689847002018F027FF02949B
:101448000194009443463A0029003000FFF7EAF877
:101458000128CAD00020C8E7B0B6010838BC010886
:10146800E4B60108ECBA0108A0B60108F1D8FFFFFC
:10147800BCB60108C8B60108D4B60108D8B6010838
:10148800E4BA010810B70108F0B5DE4657464E46E3
:101498004546E0B5A7B00400079116009846309B72
:1014A8009946319B9A46329B9B464021100018F082
:1014B800F0FB18F0E7FE0690002018F0E7FE9AE02F
:1014C8000025002D03D000250BA818F0C0FB002D27
:1014D80000D0D9E14B46002B0DD049460EA818F094
:1014E80004FC0EA9300018F00CFD00281CD10127BF
:1014F80002E00125E8E72F00002F03D00EA818F01E
:10150800A6FB2F00002F00D0C7E15346002B0DD0BB
:10151800514611A818F0E9FB11A9300018F0F1FCA8
:1015280000281CD1012502E00125E7E73D00002D38
:1015380003D011A818F08BFB3D00002D00D0AEE1C0
:101548005B46002B0DD0594614A818F0CEFB14A901
:10155800300018F0D6FC00281CD1012702E0012732
:10156800E7E72F00002F03D014A818F070FB2F0016
:10157800002F00D095E1339B002B0DD0190017A840
:1015880018F0B3FB17A9300018F0BBFC002858D19D
:10159800012302E00125E7E73B00002B03D017A851
:1015A80018F055FB3B00002B00D07CE1BF491AA87E
:1015B80018F09BFB1AA9300018F0A3FC05001AA824
:1015C80018F045FB002D63D0206803681D6A0723C7
:1015D80008AA2C21A8470300421E052A33D808A8C8
:1015E8000022C25418F078FE01B249B201292CD069
:1015F800300018F052FC206803681B6998470028DF
:1016080000DC30E1002018F041FE206803685B69C7
:10161800984743B2002BEEDDC1B2300018F01EFC33
:101628004346002B00D14BE741460BA818F05DFB61
:101638000BA9300018F065FC002800D059E70125F7
:101648003FE70127ABE79A49CFE7206803681D6A9F
:10165800072308AA0931A8470300421E052A15D8FE
:1016680008A80022C25418F037FE00B243B2C0B234
:10167800092806D89B00E3185B68002B01D00122DB
:101688005A778C49300018F09BFBB4E78848EDE79F
:1016980089491DA818F029FB1DA9300018F031FC54
:1016A80005001DA818F0D3FA002D43D02068036860
:1016B8001D6A072308AA2C21A8470300421E052AF1
:1016C80033D808A80022C25418F006FE03B20593C6
:1016D8006B4614255D57206803681F6A072308AA0C
:1016E8000A21B8470300421E052A21D808A800226B
:1016F800C25418F0F1FD03B26A46107D09280FD8CC
:10170800AA00A2185268002A0AD0012151779BB278
:101718008022D200934203D8AD0065196A68D3824B
:101728006449300018F04CFB65E7614B0593CFE73F
:101738005F4BE1E7614920A818F0D7FA20A93000EB
:1017480018F0DFFB050020A818F081FA002D48D01A
:10175800206803681D6A072308AA2C21A8470300EC
:10176800421E052A0DD808A80022C25418F0B4FD5C
:1017780003B205936B461427DF5718F083FD050065
:1017880008E04B4B0593F5E7206803685B699847C9
:101798000A2816D018F076FD401BFA239B009842C1
:1017A8000FD218F06FFD401BFA239B009842EBD232
:1017B800206803681B6998470028E5D118F066FD82
:1017C800EFE76B461B7D092B06D8BF00E7197B683E
:1017D800002B01D000221A773649300018F0F0FAB1
:1017E80009E7374923A818F080FA23A9300018F030
:1017F80088FB050023A818F02AFA002D00D1FAE684
:101808002000FFF7BBFA002804D02A49300018F05E
:10181800D7FAF0E6E56A2B49206818F06DF82A49EE
:10182800206818F069F82900206818F065F8206821
:101838000368DB689847002018F028FD1D4908A8B0
:1018480018F053FAFA2100230393029301931F4BD4
:1018580000931F4B08AAC9002000FFF715FE08A82F
:1018680018F0F5F9D1E718F00DFD069BC01A079B93
:10187800984200D220E6300018F0AAFB0D4930004B
:1018880018F09EFA002000E0012040B227B0F0BC1A
:10189800BB46B246A946A046F0BD0220F5E70320A4
:1018A800F3E70420F1E70520EFE7C046A0B60108FA
:1018B800F1D8FFFF38BC0108B0B60108BCB6010872
:1018C800C8B60108D4B60108D8B60108ECBA0108B0
:1018D800E4B60108F0B5DE4657464E464546E0B543
:1018E800CDB08046059106929A4603681B6B9847CF
:1018F800002018F0CBFC0023424653661366146997
:10190800137D9946E56AC549206817F0F5FFC44973
:10191800206817F0F1FF2900206817F0EDFF206814
:101928000368DB689847002018F0B0FCBD490AA896
:1019380018F0DBF940210AA818F0ABF918F0A2FC5E
:101948000490C346002018F0A1FC08E0002527E019
:10195800B5495DE0B4486FE00AA818F09EFA20681F
:1019680003681B699847002801DC00F070FC002020
:1019780018F08CFC206803685B69984743B2002B19
:10198800EDDDC1B20AA818F069FAA84916A818F03E
:10199800ACF916A90AA818F0B4FA0028D6D001257F
:1019A80016A818F054F9002D01D000F064FCA049E5
:1019B80019A818F09AF919A90AA818F0A2FA002883
:1019C80000D0013519A818F042F9002D01D000F017
:1019D80064FC98491CA818F088F91CA90AA818F0F2
:1019E80090FA05001CA818F032F9002D34D02068B0
:1019F80003681D6A072313AA2C21A8470300421E67
:101A0800052AA5D813A80022C25418F065FC01B213
:101A180049B20129A0D1206803681D6A072313AAC7
:101A28000931A8470300421E052A93D813A80022AB
:101A3800C25418F051FC00B243B2C0B2092806D80B
:101A48009B00E3185B68002B01D001225A77754987
:101A58000AA818F0B5F982E777491FA818F045F9E0
:101A68001FA90AA818F04DFA05001FA818F0EFF8EA
:101A7800002D3ED0206803681D6A072313AA2C2175
:101A8800A8470300421E052A2FD813A80022C254D3
:101A980018F022FC05B26EB2206803681F6A07239B
:101AA80013AA0A21B8470300421E052A1FD813A803
:101AB8000022C25418F010FC00B2EDB2092D0FD864
:101AC800B300E3185B68002B0AD001225A7780B272
:101AD8008023DB00984203D8B600A6197368D88221
:101AE80050490AA818F06CF939E74F4DD3E74E482A
:101AF800E3E7524922A818F0F8F822A90AA818F032
:101B080000FA050022A818F0A2F8002D42D020689B
:101B180003681D6A072313AA2C21A8470300421E45
:101B2800052A0AD813A80022C25418F0D5FB05B21A
:101B38006FB218F0A7FB060016E03B4DF8E718F067
:101B4800A5FB18F09FFB801BFA239B00984205D247
:101B5800206803681B6998470028F0D0206803684C
:101B68005B6998470A2806D018F08CFB801BFA237B
:101B78009B009842E5D3EDB2092D06D8BF00E719BE
:101B88007B68002B01D000221A7726490AA818F092
:101B980017F9E4E62A4925A818F0A7F825A90AA8FC
:101BA80018F0AFF9050025A818F051F8002D00D15C
:101BB800D5E62000FFF7E2F80790002804D019497D
:101BC8000AA818F0FDF8CAE6E56A1449206817F073
:101BD80093FE1C49206817F08FFE2900206817F033
:101BE8008BFE20680368DB689847002018F04EFBDE
:101BF8000C490DA818F079F840210DA818F049F8FB
:101C080018F040FB0890C846002018F03FFB1EE083
:101C1800079D3CE0044970E0034883E0D4B601081E
:101C280018B7010838BC0108F1D8FFFFE4BA010869
:101C3800ECBA0108A0B60108B0B60108BCB60108A4
:101C4800C8B60108D8B601080DA818F026F920680A
:101C580003681B699847002800DCDFE2002018F0C1
:101C680015FB206803685B69984743B2002BEEDDDB
:101C7800C1B20DA818F0F2F8A34928A818F035F851
:101C880028A90DA818F03DF90028C1D0012528A8D9
:101C980017F0DDFF002D00D0D2E29C492BA818F0E8
:101CA80024F82BA90DA818F02CF9002800D001352C
:101CB8002BA817F0CCFF002D00D0C6E294492EA81F
:101CC80018F013F82EA90DA818F01BF905002EA876
:101CD80017F0BDFF002D35D0206803681D6A072363
:101CE80013AA2C21A8470300421E052A92D813A83C
:101CF8000022C25418F0F0FA01B249B20129A3D166
:101D0800206803681D6A072313AA0931A84703003E
:101D1800421E052A00D97FE713A80022C25418F0F2
:101D2800DBFA00B243B2C0B2092806D89B00E31818
:101D38005B68002B01D001225A7776490DA818F06C
:101D48003FF884E7744931A817F0CFFF31A90DA8EF
:101D580018F0D7F8050031A817F079FF002D3ED00C
:101D6800206803681D6A072313AA2C21A8470300CB
:101D7800421E052A2FD813A80022C25418F0ACFA24
:101D880005B26EB2206803681F6A072313AA0A21E6
:101D9800B8470300421E052A1FD813A80022C254C0
:101DA80018F09AFA00B2EDB2092D0FD8B300E31873
:101DB8005B68002B0AD001225A7780B28023DB00AF
:101DC800984203D8B600A6197368D88251490DA85D
:101DD80017F0F6FF3BE7514DD3E75048E3E750498A
:101DE80034A817F082FF34A90DA818F08AF8050066
:101DF80034A817F02CFF002D43D0206803681D6A13
:101E0800072313AA2C21A8470300421E052A0AD833
:101E180013A80022C25418F05FFA05B26FB218F086
:101E280031FA060007E03D4DF8E7206803685B6972
:101E380098470A2816D018F025FA801BFA239B0029
:101E480098420FD218F01EFA801BFA239B00984282
:101E5800EBD2206803681B6998470028E5D118F081
:101E680015FAEFE7EDB2092D06D8BF00E7197B6830
:101E7800002B01D000221A7726490DA817F0A0FFE1
:101E8800E5E6284937A817F030FF37A90DA818F05C
:101E980038F8050037A817F0DAFE002D00D1D6E68D
:101EA8002000FEF76BFF061E04D01A490DA817F094
:101EB80087FFCCE6E56A1C49206817F01DFD1B4921
:101EC800206817F019FD2900206817F015FD206813
:101ED8000368DB689847002018F0D8F90D4910A866
:101EE80017F003FF402110A817F0D3FE18F0CAF925
:101EF8000990002018F0CAF91DE035003BE00749B9
:101F08006FE0064882E0C046E4B60108ECBA010872
:101F1800A0B6010838BC0108B0B60108F1D8FFFF27
:101F2800BCB60108C8B60108D4B60108D8B601087D
:101F380010A817F0B2FF206803681B6998470028AB
:101F480000DC57E1002018F0A1F9206803685B69FC
:101F5800984743B2002BEEDDC1B210A817F07EFF00
:101F6800CF493AA817F0C1FE3AA910A817F0C9FF3F
:101F78000028C2D001253AA817F069FE002D00D02C
:101F880048E1C8493DA817F0B0FE3DA910A817F0D0
:101F9800B8FF002800D001353DA817F058FE002DE5
:101FA80000D037E1C04940A817F09FFE40A910A80B
:101FB80017F0A7FF050040A817F049FE002D35D0FF
:101FC800206803681D6A072313AA2C21A847030069
:101FD800421E052A93D813A80022C25418F07CF98F
:101FE80001B249B20129A3D1206803681D6A0723F9
:101FF80013AA0931A8470300421E052A00D980E721
:1020080013A80022C25418F067F900B243B2C0B254
:10201800092806D89B00E3185B68002B01D0012231
:102028005A77A24910A817F0CBFE84E7A04943A825
:1020380017F05BFE43A910A817F063FF050043A83B
:1020480017F005FE002D3FD0206803681D6A07239E
:1020580013AA2C21A8470300421E052A30D813A82A
:102068000022C25418F038F905B26FB2206803682C
:102078001B6A9946072313AA0A21C8470300421E70
:10208800052A1FD813A80022C25418F025F903B254
:10209800EDB2092D0FD8BA00A2185268002A0AD04A
:1020A800012151779BB28022D200934203D8BF000E
:1020B800E7197A68D3827D4910A817F081FE3AE7BC
:1020C8007C4DD2E77B4BE3E77B4946A817F00DFE32
:1020D80046A910A817F015FF050046A817F0B7FD88
:1020E800002D45D0206803681D6A072313AA2C21F8
:1020F800A8470300421E052A0BD813A80022C25481
:1021080018F0EAF807B27BB2994618F0BBF8050058
:1021180007E0684FF7E7206803685B6998470A2873
:1021280016D018F0AFF8401BFA239B0098420FD244
:1021380018F0A8F8401BFA239B009842EBD22068BD
:1021480003681B6998470028E5D118F09FF8EFE766
:10215800FFB2092F07D84B469B00E3185B68002B9A
:1021680001D000221A77514910A817F029FEE2E69B
:10217800524949A817F0B9FD49A910A817F0C1FE9E
:10218800050049A817F063FD002D00D1D3E6200013
:10219800FEF7F4FD002804D0444910A817F010FEFB
:1021A800C9E6E56A4649206817F0A6FB4549206854
:1021B80017F0A2FB2900206817F09EFB206803682F
:1021C800DB689847002018F061F8384913A817F021
:1021D8008CFDFA210023039302930193314B009362
:1021E8002F4B13AAC9002000FFF74EF913A817F0C8
:1021F8002EFDD1E718F046F8099BC01AFA23DB0038
:10220800984200D275E610A817F0E2FE274910A8F8
:1022180017F0D6FD10A817F01AFD46E618F032F8A8
:10222800089BC01AFA23DB00984200D2ECE4C146AE
:102238000DA817F0CDFE1D490DA817F0C1FD00E04F
:10224800C1460DA817F003FDB9E4C146F9E718F037
:1022580019F8049BC01AFA239B00984201D2FFF791
:1022680071FBD8460AA817F0B3FE10490AA817F060
:10227800A7FD002501E0D84601256DB20AA817F090
:10228800E6FC012D20D00020434618774DB0F0BC65
:10229800BB46B246A946A046F0BDD8460225ECE7A3
:1022A800E4B60108ECBA0108A0B6010838BC010878
:1022B800B0B60108F1D8FFFFBCB60108C8B60108DE
:1022C800D4B60108D8B6010853465D01ED1AAD0031
:1022D8005544ED00E66A3849206817F00DFB374988
:1022E800206817F009FB0A224946206817F0DBFB33
:1022F8002C21206817F014FB3149206817F0FCFAEC
:102308003049206817F0F8FA0599206817F0F4FAB0
:102318002D49206817F0F0FA0A220699206817F06C
:10232800A8FB3100206817F0E7FA20680368DB682B
:102338009847002017F0AAFF002302930193009307
:10234800224B234A29002000FEF76CF9012801D00E
:10235800002099E7206803681D6A072313AA2C2127
:10236800A8470300421E052A1ED813A80022C254FB
:1023780017F0B2FF05B2EDB2206803681C6A0723A4
:1023880013AA0A21A0470300421E052A0ED813A843
:102398000022C25417F0A0FF00B2C0B2A94507D16D
:1023A800002807D101306FE70A4DE4E70948F4E750
:1023B800002069E7002067E7D4B6010824B70108C0
:1023C80030B7010838B701083CB70108ECBA010872
:1023D80040B70108F1D8FFFF70B504001500061DCD
:1023E8004160174B036308302822002117F0E9FFEA
:1023F800144B0833236021003431134B63630023EB
:10240800A363124A6263FA229200E263104A62638B
:10241800104A62639822A350043AA3500E4A62639A
:10242800A0220E48A0506664563AA352E3640022E4
:102438000A774B770B75A1609C23E550200070BD8F
:102448004CB70108F4BA0108E0D30108F8D3010831
:102458001CBA010860BA0108A4BA010850B70108FB
:10246800F0B5DE4657464E464546E0B5FDB0049009
:102478000D00079208939C23C858D54917F074FAA1
:10248800290034315023D34A16A814F0E5FD2C1D39
:10249800E66AD149686817F02FFA2B21686817F0A7
:1024A8003FFACE49686817F027FA3F21686817F0A5
:1024B80037FA3100686817F01FFA68680368DB6844
:1024C8009847002017F0E2FEC5490AA817F00DFC4E
:1024D80040210AA817F0DDFB17F0D4FE0590A846A6
:1024E800002017F0D3FE08E0002526E0BD496BE088
:1024F800BC487DE00AA817F0D0FC206803681B6977
:102508009847002800DCF9E2002017F0BFFE206899
:1025180003685B69984743B2002BEEDDC1B20AA895
:1025280017F09CFCB04931A817F0DFFB31A90AA8C5
:1025380017F0E7FC0028D7D0012531A817F087FB52
:10254800002D00D0EDE2A94934A817F0CEFB34A93C
:102558000AA817F0D6FC002800D0013534A817F0D7
:1025680076FB002D00D0ECE2A14937A817F0BDFB9F
:1025780037A90AA817F0C5FC002800D0013537A8EC
:1025880017F065FB002D00D0DEE29A493AA817F053
:10259800ACFB3AA90AA817F0B4FC05003AA817F052
:1025A80056FB002D34D0206803681D6A072310AA43
:1025B8002C21A847431E052B98D810AB00221A548B
:1025C800180017F089FE01B249B2012992D120689A
:1025D80003681D6A072310AA0931A847431E052B63
:1025E80086D810AB00221A54180017F075FE00B2F6
:1025F80043B2C0B2092806D89B00E3185B68002BD9
:1026080001D001225A7776490AA817F0D9FB74E756
:1026180079493DA817F069FB3DA90AA817F071FC94
:1026280005003DA817F013FB002D3ED02068036875
:102638001D6A072310AA2C21A847431E052B30D852
:1026480010AB00221A54180017F046FE05B26EB2FD
:10265800206803681F6A072310AA0A21B847431E87
:10266800052B20D810AB00221A54180017F034FE9E
:1026780000B2EDB2092D0FD8B300E3185B68002B48
:102688000AD001225A7780B28023DB00984203D80F
:10269800B600A6197368D88251490AA817F090FBAA
:1026A8002BE7504DD3E74F48E3E7544940A817F0CC
:1026B8001CFB40A90AA817F024FC050040A817F045
:1026C800C6FA002D42D0206803681D6A072310AAA5
:1026D8002C21A847431E052B0BD810AB00221A54F7
:1026E800180017F0F9FD05B26FB217F0CBFD060020
:1026F80016E03C4DF8E717F0C9FD17F0C3FD801B45
:10270800FA239B00984205D2206803681B69984702
:102718000028F0D0206803685B6998470A2806D02B
:1027280017F0B0FD801BFA239B009842E5D3EDB269
:10273800092D06D8BF00E7197B68002B01D00022BD
:102748001A7727490AA817F03BFBD6E62C4943A875
:1027580017F0CBFA43A90AA817F0D3FB050043A842
:1027680017F075FA002D00D1C7E62000FEF706FB2A
:10277800051E04D01A490AA817F022FBBDE6E66A2E
:102788001549206817F0B8F81E49206817F0B4F802
:102798003100206817F0B0F820680368DB689847B4
:1027A800002017F073FD0E490DA817F09EFA40217E
:1027B8000DA817F06EFA17F065FD81460695002002
:1027C80017F064FD8EE0069DADE00649E3E0C046E3
:1027D80064B7010878B70108D4B6010894B70108AE
:1027E80038BC0108F1D8FFFF9CB70108A4B701085D
:1027F800ACB70108A0B60108B0B60108BCB601081C
:10280800C8B60108D8B60108206803681D6A0723FE
:1028180010AA0931A847431E052B16D810AB002271
:102828001A54180017F058FD00B243B2C0B2092874
:1028380006D89B00E3185B68002B01D001225A7769
:10284800DC490DA817F0BCFA4CE0DB48EDE7DB49A2
:102858004FA817F04AFA4FA90DA817F052FB050028
:102868004FA817F0F4F9002D00D1A0E02068036804
:102878001D6A072310AA2C21A847431E052B00D93F
:1028880091E010AB00221A54180017F025FD05B28C
:102898006EB2206803681F6A072310AA0A21B84786
:1028A800431E052B00D980E010AB00221A541800F3
:1028B80017F012FD00B2EDB2092D0FD8B300E318DE
:1028C8005B68002B0AD001225A7780B28023DB0094
:1028D800984203D8B600A6197368D882B5490DA8DE
:1028E80017F06EFA206803681B699847002800DC17
:1028F800F0E0002017F0CAFC206803685B6998477D
:1029080043B2002BEEDDC1B20DA817F0A7FAAC490F
:1029180046A817F0EAF946A90DA817F0F2FA002818
:1029280000D150E7012546A817F091F9002D00D0F5
:10293800E0E0A44949A817F0D8F949A90DA817F06B
:10294800E0FA002800D0013549A817F080F9002DD9
:1029580000D0CFE09C494CA817F0C7F94CA90DA8A6
:1029680017F0CFFA05004CA817F071F9002D00D127
:102978006DE7206803681D6A072310AA2C21A84761
:10298800431E052B00D920E710AB00221A5418006B
:1029980017F0A2FC01B249B2012900D134E70DA811
:1029A80017F07BFA9EE7844D72E7834883E78749EF
:1029B80052A817F09AF952A90DA817F0A2FA050023
:1029C80052A817F044F9002D42D0206803681D6A08
:1029D800072310AA2C21A847431E052B0BD810ABA0
:1029E80000221A54180017F077FC05B26FB217F0DE
:1029F80049FC060016E0704DF8E717F047FC17F0A1
:102A080041FC801BFA239B00984205D2206803688A
:102A18001B6998470028F0D0206803685B699847CD
:102A28000A2806D017F02EFC801BFA239B00984238
:102A3800E5D3EDB2092D06D8BF00E7197B68002B56
:102A480001D000221A775B490DA817F0B9F949E7B8
:102A58005F4955A817F049F955A90DA817F051FA7B
:102A6800050055A817F0F3F8002D00D13AE720002B
:102A7800FEF784F9002804D04E490DA817F0A0F9F4
:102A880030E7E56A5349206816F036FF5249206856
:102A980016F032FF2900206816F02EFF2068036820
:102AA800DB689847002017F0F1FB424910A817F09F
:102AB8001CF9FA210023039302930193414B0093DD
:102AC8003F4B10AAC9002000FEF7DEFC10A817F043
:102AD800BEF8D1E717F0D6FB4B46C01AFA23DB0045
:102AE800984200D26BE60DA817F072FA31490DA88A
:102AF80017F066F90DA817F0AAF83BE617F0C2FB25
:102B0800059BC01AFA239B00984200D2E8E4454688
:102B18000AA817F05DFA27490AA817F051F9002604
:102B280001E04546012676B20AA817F090F8013E62
:102B3800F6B2022E01D900F052FC17F0A3FB0600F2
:102B48000BE045460226EEE745460326EBE72068FC
:102B580003685B6998472C2816D017F093FB801BF5
:102B6800FA239B0098420FD217F08CFB801BFA23A4
:102B78009B009842EBD2206803681B69984700289D
:102B8800E5D117F083FBEFE701220021686817F011
:102B980027F8059007490AA817F0A7F840210AA8BE
:102BA80017F077F817F06EFB0690A846002017F08C
:102BB8006DFB1CE038BC0108F1D8FFFFB0B6010876
:102BC800E4B60108ECBA0108A0B60108BCB60108D1
:102BD800C8B60108D4B60108D8B60108002526E011
:102BE800C1495AE0C0486CE00AA817F056F92068B5
:102BF80003681B699847002800DCE0E2002017F012
:102C080045FB206803685B69984743B2002BEEDDFB
:102C1800C1B20AA817F022F9B44958A817F065F804
:102C280058A90AA817F06DF90028D7D0012558A887
:102C380017F00DF8002D00D0E8E2AD495BA817F0B9
:102C480054F85BA90AA817F05CF9002800D00135F0
:102C58005BA816F0FCFF002D00D0BEE3A5495EA8D6
:102C680017F043F85EA90AA817F04BF905005EA80B
:102C780016F0EDFF002D34D0206803681D6A072385
:102C880010AA2C21A847431E052BA9D810AB002257
:102C98001A54180017F020FB01B249B20129A3D138
:102CA800206803681D6A072310AA0931A847431E34
:102CB800052B97D810AB00221A54180017F00CFBFC
:102CC80000B243B2C0B2092806D89B00E3185B687B
:102CD800002B01D001225A7787490AA817F070F80B
:102CE80085E7864961A817F000F861A90AA817F0D6
:102CF80008F9050061A816F0AAFF002D3ED020684B
:102D080003681D6A072310AA2C21A847431E052B18
:102D180030D810AB00221A54180017F0DDFA05B2AB
:102D28006EB2206803681F6A072310AA0A21B847F1
:102D3800431E052B20D810AB00221A54180017F098
:102D4800CBFA00B2EDB2092D0FD8B300E3185B68D7
:102D5800002B0AD001225A7780B28023DB009842E8
:102D680003D8B600A6197368D88263490AA817F071
:102D780027F83CE75C4DD3E75B48E3E7604964A884
:102D880016F0B3FF64A90AA817F0BBF8050064A8F9
:102D980016F05DFF002D43D0206803681D6A0723E5
:102DA80010AA2C21A847431E052B0BD810AB0022D4
:102DB8001A54180017F090FA05B26FB217F062FAB9
:102DC800060007E0484DF8E7206803685B69984704
:102DD8000A2816D017F056FA801BFA239B0098424F
:102DE8000FD217F04FFA801BFA239B009842EBD2C0
:102DF800206803681B6998470028E5D117F046FA50
:102E0800EFE7EDB2092D06D8BF00E7197B68002B64
:102E180001D000221A7738490AA816F0D1FFE6E651
:102E2800384967A816F061FF67A90AA817F069F87A
:102E3800050067A816F00BFF002D00D1D7E620008B
:102E4800FDF79CFF051E04D02B490AA816F0B8FF11
:102E5800CDE6E66A2C49206816F04EFD2B4920681D
:102E680016F04AFD3100206816F046FD2068036818
:102E7800DB689847002017F009FA1F490DA816F0DB
:102E880034FF40210DA816F004FF17F0FBF9814626
:102E98000995002017F0FAF985E0099DA4E0124988
:102EA800DAE0206803681D6A072310AA0931A847D9
:102EB800431E052B16D810AB00221A54180017F021
:102EC8000BFA00B243B2C0B2092806D89B00E31837
:102ED8005B68002B01D001225A7707490DA816F02C
:102EE8006FFF60E00048EDE7F1D8FFFFE4BA0108A2
:102EF800ECBA0108A0B6010838BC0108B0B6010850
:102F0800BCB60108C8B60108D4B60108D8B601088D
:102F1800B44973A816F0E9FE73A90DA816F0F1FFDD
:102F2800050073A816F093FE002D00D1A0E02068DC
:102F380003681D6A072310AA2C21A847431E052BE6
:102F480000D991E010AB00221A54180017F0C4F908
:102F580005B26EB2206803681F6A072310AA0A2107
:102F6800B847431E052B00D980E010AB00221A5445
:102F7800180017F0B1F900B2EDB2092D0FD8B3005F
:102F8800E3185B68002B0AD001225A7780B28023AD
:102F9800DB00984203D8B600A6197368D882924914
:102FA8000DA816F00DFF206803681B6998470028D4
:102FB80000DCF0E0002017F069F9206803685B691D
:102FC800984743B2002BEEDDC1B20DA816F046FFBC
:102FD80086496AA816F089FE6AA90DA816F091FF1D
:102FE800002800D159E701256AA816F030FE002D07
:102FF80000D0E0E07E496DA816F077FE6DA90DA817
:1030080016F07FFF002800D001356DA816F01FFECE
:10301800002D00D0CFE0774970A816F066FE70A9A1
:103028000DA816F06EFF050070A816F010FE002D12
:1030380000D16DE7206803681D6A072310AA2C21B8
:10304800A847431E052B00D929E710AB00221A54C4
:10305800180017F041F901B249B2012900D120E75F
:103068000DA816F01AFF9EE7634D72E7624883E7E2
:10307800624976A816F039FE76A90DA816F041FF28
:10308800050076A816F0E3FD002D42D020680368FD
:103098001D6A072310AA2C21A847431E052B0BD80D
:1030A80010AB00221A54180017F016F905B26FB2C7
:1030B80017F0E8F8060016E04F4DF8E717F0E6F8C5
:1030C80017F0E0F8801BFA239B00984205D220688D
:1030D80003681B6998470028F0D0206803685B697B
:1030E80098470A2806D017F0CDF8801BFA239B00D2
:1030F8009842E5D3EDB2092D06D8BF00E7197B68E1
:10310800002B01D000221A7737490DA816F058FE77
:1031180049E73B4979A816F0E8FD79A90DA816F00A
:10312800F0FE050079A816F092FD002D00D13AE7CF
:103138002000FDF723FE002804D02B490DA816F027
:103148003FFE30E7E56A2F49206816F0D5FB2E4987
:10315800206816F0D1FB2900206816F0CDFB206806
:103168000368DB689847002017F090F81E4910A8FC
:1031780016F0BBFDFA2100230393029301931C4B25
:1031880000931A4B10AAC9002000FEF77DF910A879
:1031980016F05DFDD1E717F075F84B46C01AFA2313
:1031A800DB00984200D274E60DA816F011FF0E4914
:1031B8000DA816F005FE0DA816F049FD44E617F017
:1031C80061F8069BC01AFA239B00984200D2EDE4EE
:1031D80045460AA816F0FCFE03490AA816F0F0FDB9
:1031E80015E0C046B0B6010838BC0108E4B60108CD
:1031F800ECBA0108A0B60108F1D8FFFFBCB6010877
:10320800C8B60108D4B60108D8B6010845460AA8C8
:1032180016F01DFD6B4614201856012800D1E4E075
:10322800052800D1DEE000230593059B002B00D183
:10323800DEE09C23E858DD4916F096FB2000FDF7F8
:103248009DFD002800D0E9E09C26D949A85916F030
:1032580063FBA8590436A95916F04EFBAB599A4698
:10326800E66AD44B98461900686816F045FBD249BF
:10327800686816F041FB3100686816F03DFB686825
:103288000368DB689847002017F000F8CB4FFA2155
:1032980000260296019600963B00C94AC900200004
:1032A800FDF7C0F9E36A99464146686816F024FBC1
:1032B800C449686816F020FB5146686816F01CFB84
:1032C8002221686816F02CFBBF49686816F014FBC9
:1032D8004946686816F010FB68680368DB68984719
:1032E800002016F0D3FFB94B9A46FA239B00994663
:1032F8000296019600963B00524649462000FDF78B
:1033080091F9E36A9B464146686816F0F5FAB049B8
:10331800686816F0F1FA5946686816F0EDFA6868B8
:103328000368DB689847002016F0B0FF0296019604
:1033380000963B00524649462000FDF773F9E36AC0
:103348009B464146686816F0D7FAA249686816F0A5
:10335800D3FA5946686816F0CFFA68680368DB68DC
:103368009847002016F092FF0296019600963B00BF
:10337800524649462000FDF755F9E36A9B46414607
:10338800686816F0B9FA9449686816F0B5FA5946AB
:10339800686816F0B1FA68680368DB689847002027
:1033A80016F074FF0296019600963B005246494675
:1033B8002000FDF737F9012836D000230593059B37
:1033C800002B00D090E09C33E858844916F0CCFAE2
:1033D8008349049816F089FC13E0454617E7012055
:1033E80040421AE7012305931FE7012305931CE7D1
:1033F8009C23E8587B4916F0B7FA7949049816F0E7
:1034080074FC794B169328A816F021FC04987DB01B
:10341800F0BCBB46B246A946A046F0BD9C23E8587E
:10342800724916F0A1FA0FE7E36A9846614B99468C
:103438001900686816F060FA6D49686816F05CFA59
:103448006C4F0A223900686816F013FB2C21686853
:1034580016F066FA684E0A223100686816F009FB11
:103468002C21686816F05CFA0A223100686816F0A8
:1034780000FB4146686816F03FFA68680368DB6835
:103488009847002016F002FF4C4B9846FA21002678
:103498000296019600964D4A89002000FDF7C2F871
:1034A800E36A9A464946686816F026FA53496868F6
:1034B80016F022FA5146686816F01EFA6868036822
:1034C800DB689847002016F0E1FE02960196009608
:1034D80043464B4A39002000FDF7A4F8012800D1E3
:1034E8006DE7002305936AE79C23E858454916F0E1
:1034F8003BFA079B002B44D0012B00D190E016A883
:1035080013F04AFF04009C263F49A85916F004FA14
:10351800A8590A22210016F0B0FA002C00DA9FE020
:103528009C23E858394916F00BFA16A814F064F9E8
:10353800002800D199E016A90DA813F0F9FF16A9E3
:1035480010A814F00FF89C23EC5831492EA816F057
:10355800CCFB0DA92EA816F0B2FC2E4916F0BEFC25
:1035680010A916F0ACFC0100200016F0F3F92EA803
:1035780016F06DFB10A816F06AFB0DA816F067FB95
:10358800D3E79C23E858244916F0C6F9089916A8E9
:1035980013F0E2FE0028B2D09C23E8581F4916F029
:1035A800CFF90F49049816F0A0FB2AE7B4B7010831
:1035B800F4B70108D4B60108D8B60108ECBA010876
:1035C800E4B6010804B8010818B80108E4BA01080B
:1035D80028B8010834B8010844B801088CB80108B3
:1035E80038BC0108C8B70108B4BF0108E4B701082E
:1035F80060B80108F8240100983A000070B8010882
:103608007CB8010894B8010804B901081CB901087C
:1036180030B9010838B9010898B80108B8B80108E4
:103628009C23E858314916F077F931492BA816F050
:103638005CFB869B2BAA089916A813F0A1FE040030
:103648002BA816F004FB002C00D158E79C23E8585F
:10365800284916F075F92849049816F046FBD0E673
:103668002549049816F041FBCBE616A814F054F847
:10367800041E29DA16AA3823D35C002B2FD116A9E9
:1036880013A814F055F89C241C49285916F058F929
:1036980013A9285916F05EF91949285916F03CF96A
:1036A80015990A22285916F006FA16A813F004FDEF
:1036B8002859144916F044F913A9049816F05CFB2C
:1036C80013A816F0C4FA9CE69C260F49A85916F0D0
:1036D80023F9A8590A22210016F0CFF9CAE79C233A
:1036E800E8580A4916F02CF9C9E7C046CCB80108D1
:1036F800F0B80108B8B8010838BC010868B9010871
:1037080074B9010888B901083CB9010850B9010821
:10371800F0B589B004000E0011001F0002A816F0D1
:1037280045FB05AD3900280016F040FB009502ABBB
:10373800012231002000FEF793FE280016F087FAD8
:1037480002A816F084FA200009B0F0BD70B588B060
:1037580004000E00110002A816F028FB05AD0A4966
:10376800280016F0C2FA009502AB002231002000B2
:10377800FEF776FE280016F06AFA02A816F067FA35
:10378800200008B070BDC04638BC01080A8803880C
:103798009A4200D208007047F0B5DE4657464E46BA
:1037A8004546E0B5C94CA5440500002016F06EFD5D
:1037B80016F068FD8346A94625E3002526E0C4499E
:1037C8005AE0C3486CE00AA816F067FB2068036853
:1037D8001B699847002800DCE9E2002016F056FD36
:1037E800206803685B69984743B2002BEEDDC1B2DD
:1037F8000AA816F033FBB74914A816F076FA14A9EC
:103808000AA816F07EFB0028D7D0012514A816F0C8
:103818001EFA002D00D0EFE2AF4917A816F065FA9E
:1038280017A90AA816F06DFB002800D0013517A8C3
:1038380016F00DFA002D00D03EE3A8491AA816F09C
:1038480054FA1AA90AA816F05CFB05001AA816F083
:10385800FEF9002D34D0206803681D6A072310AADA
:103868002C21A847431E052BA9D810AB00221A54B7
:10387800180016F031FD01B249B20129A3D1206820
:1038880003681D6A072310AA0931A847431E052BA0
:1038980097D810AB00221A54180016F01DFD00B27C
:1038A80043B2C0B2092806D89B00E3185B68002B16
:1038B80001D001225A778A490AA816F081FA85E7C9
:1038C80088491DA816F011FA1DA90AA816F019FBB7
:1038D80005001DA816F0BBF9002D3FD0206803682D
:1038E8001D6A072310AA2C21A847431E052B31D88F
:1038F80010AB00221A54180016F0EEFC05B26FB295
:10390800206803681B6A9846072310AA0A21C04743
:10391800431E052B20D810AB00221A54180016F0AD
:10392800DBFC03B2EDB2092D0FD8BA00A218526819
:10393800002A0AD0012151779BB28022D2009342FB
:1039480003D8BF00E7197A68D38265490AA816F038
:1039580037FA3BE75E4DD2E75D4BE3E7624920A8C3
:1039680016F0C3F920A90AA816F0CBFA050020A87A
:1039780016F06DF9002D44D0206803681D6A0723EE
:1039880010AA2C21A847431E052B0BD810AB0022E8
:103998001A54180016F0A0FC05B26FB216F072FCAB
:1039A800804617E04A4DF8E716F070FC16F06AFCFE
:1039B8004346C01AFA239B00984205D22068036840
:1039C8001B6998470028EFD0206803685B6998470F
:1039D8000A2807D016F056FC4346C01AFA239B0063
:1039E8009842E3D3EDB2092D06D8BF00E7197B68EA
:1039F800002B01D000221A7739490AA816F0E0F9FD
:103A0800E4E63A4923A816F070F923A90AA816F0A3
:103A180078FA050023A816F01AF9002D00D1D5E68A
:103A28002000FDF7ABF90590002804D02C490AA81E
:103A380016F0C6F9CAE6E56A2D49206815F05CFF5C
:103A48002C49206815F058FF2900206815F054FF0C
:103A580020680368DB689847002016F017FC2049A7
:103A68000DA816F042F940210DA816F012F916F02B
:103A780009FC8046002016F009FC89E0059DA8E0B5
:103A88001349DEE0206803681D6A072310AA09317C
:103A9800A847431E052B16D810AB00221A5418004D
:103AA80016F01AFC00B243B2C0B2092806D89B002F
:103AB800E3185B68002B01D001225A7708490DA84A
:103AC80016F07EF964E00248EDE7C046CCFDFFFF42
:103AD800F1D8FFFFACB90108ECBA0108A0B601089B
:103AE80038BC0108B0B60108BCB60108C8B6010860
:103AF800D4B60108D8B60108B5492FA816F0F5F8CC
:103B08002FA90DA816F0FDF905002FA816F09FF8AB
:103B1800002D00D1A1E0206803681D6A072310AAC0
:103B28002C21A847431E052B00D992E010AB002298
:103B38001A54180016F0D0FB05B26FB2206803685B
:103B48001B6A9A46072310AA0A21D047431E052B51
:103B580000D980E010AB00221A54180016F0BCFB04
:103B680003B2EDB2092D0FD8BA00A2185268002A84
:103B78000AD0012151779BB28022D200934203D808
:103B8800BF00E7197A68D38292490DA816F018F990
:103B9800206803681B699847002800DCF3E00020D0
:103BA80016F074FB206803685B69984743B2002BE2
:103BB800EEDDC1B20DA816F051F9874926A816F016
:103BC80094F826A90DA816F09CF9002800D155E70D
:103BD800012526A816F03BF8002D00D0E3E07F4928
:103BE80029A816F082F829A90DA816F08AF9002844
:103BF80000D0013529A816F02AF8002D00D0D2E00F
:103C080077492CA816F071F82CA90DA816F079F9A7
:103C180005002CA816F01BF8002D00D16CE72068D1
:103C280003681D6A072310AA2C21A847431E052BE9
:103C380000D925E710AB00221A54180016F04CFBE7
:103C480001B249B2012900D11CE70DA816F025F9E7
:103C58009EE7644D71E7634B83E7634932A816F02A
:103C680044F832A90DA816F04CF9050032A815F051
:103C7800EEFF002D45D0206803681D6A072310AAAF
:103C88002C21A847431E052B0BD810AB00221A5431
:103C9800180016F021FB05B26FB216F0F3FA82464F
:103CA80007E0504DF8E7206803685B6998470A28E1
:103CB80018D016F0E7FA5346C01AFA239B00984228
:103CC80010D216F0DFFA5346C01AFA239B00984226
:103CD800E9D2206803681B6998470028E3D116F0E9
:103CE800D5FAEEE7EDB2092D06D8BF00E7197B68D3
:103CF800002B01D000221A7736490DA816F060F87B
:103D080046E73A4935A815F0F0FF35A90DA816F091
:103D1800F8F8050035A815F09AFF002D00D137E70F
:103D28002000FDF72BF8002804D02A490DA816F02A
:103D380047F82DE7E56A2E49206815F0DDFD2D4985
:103D4800206815F0D9FD2900206815F0D5FD2068F8
:103D58000368DB689847002016F098FA1D4910A8F8
:103D680015F0C3FFFA2100230393029301931B4B21
:103D78000093194B10AAC9002000FDF785FB10A875
:103D880015F065FFD1E716F07DFA4346C01AFA230D
:103D9800DB00984200D26DE60DA816F019F90D491E
:103DA8000DA816F00DF80DA815F051FF3EE616F017
:103DB80069FA049BC01AFA239B00984278D30AA890
:103DC80016F006F903490AA815F0FAFF002514E0D1
:103DD800B0B6010838BC0108E4B60108ECBA01081D
:103DE800A0B60108F1D8FFFFBCB60108C8B60108A3
:103DF800D4B60108D8B6010801256DB20AA815F095
:103E080026FF012D5AD04B46DB8A002B01D100F04A
:103E180019FC16F037FA5B46C01AC34B984201D911
:103E280000F010FC00234A465366136614694623C3
:103E380002AA944663443F221A8049461631462016
:103E48006044FFF7A3FC07884B461E7DB300E318C8
:103E58005B68002BD7D0E56AB449206815F04CFDA3
:103E6800B349206815F048FD0A223100206815F092
:103E78001AFE2C21206815F053FD0A22390020680B
:103E880015F0F7FD2900206815F036FD2068036855
:103E9800DB689847002016F0F9F9A6490AA815F03A
:103EA80024FF40210AA815F0F4FE16F0EBF904905F
:103EB800002016F0EBF989E402259EE716F0E2F9F6
:103EC800050005E0206803685B6998472C2816D030
:103ED80016F0D8F9401BFA239B0098420FD216F02F
:103EE800D1F9401BFA239B009842EBD22068036863
:103EF8001B6998470028E5D116F0C8F9EFE716F0D6
:103F0800C1F9050005E0206803685B6998472C281B
:103F180016D016F0B7F9401BFA239B0098420FD22F
:103F280016F0B0F9401BFA239B009842EBD22068A8
:103F380003681B6998470028E5D116F0A7F9EFE751
:103F4800206803681D6A072310AA2C21A847431E6E
:103F5800052B1BD810AB00221A54180016F0BCF918
:103F680007B2206803681D6A072310AA0A21A84718
:103F7800431E052B0CD810AB00221A54180016F05B
:103F8800ABF905B200239846049530E06A4FE8E79C
:103F9800694DF7E7002016F079F9206803681B6976
:103FA8009847002809D116F06DF95346C01AB30096
:103FB800E3185B689B689842ECD3206803685B69E8
:103FC8009847C3B29A46B300E3185B68196E4A1C57
:103FD80094463F2260460240586E824204D05918E7
:103FE800202055460D541A6601239C46E044474557
:103FF80003DD16F047F98246CFE7049DB600A619FF
:104008007368DD824B490AA815F06FFE40210AA8A3
:1040180015F03FFE16F036F98246002016F036F904
:1040280008E0002526E044495AE043486CE00AA825
:1040380015F033FF206803681B699847002800DCE7
:10404800EBE2002016F022F9206803685B699847C4
:1040580043B2002BEEDDC1B20AA815F0FFFE3749C6
:1040680038A815F042FE38A90AA815F04AFF00281A
:10407800D7D0012538A815F0EAFD002D00D0DCE2E4
:104088002F493BA815F031FE3BA90AA815F039FFC6
:10409800002800D001353BA815F0D9FD002D00D02F
:1040A800CBE228493EA815F020FE3EA90AA815F043
:1040B80028FF05003EA815F0CAFD002D44D0206851
:1040C80003681D6A072310AA2C21A847431E052B45
:1040D800A9D810AB00221A54180016F0FDF801B246
:1040E80049B20129A3D1206803681D6A072310AAD1
:1040F8000931A847431E052B97D810AB00221A5444
:10410800180016F0E9F800B243B2C0B2092806D880
:104118009B00E3185B68002B01D001225A77054900
:104128000AA815F04DFE85E7973A0000D4B60108B5
:104138009CB9010838BC0108F1D8FFFFE4BA0108AE
:10414800ECBA0108A0B60108D44941A815F0CDFD84
:1041580041A90AA815F0D5FE050041A815F077FD7C
:10416800002D3ED0206803681D6A072310AA2C2161
:10417800A847431E052B30D810AB00221A5418004C
:1041880016F0AAF805B26EB2206803681F6A072302
:1041980010AA0A21B847431E052B20D810AB0022CD
:1041A8001A54180016F098F803B2EDB2092D0FD87A
:1041B800B200A2185268002A0AD0012151779BB296
:1041C8008022D200934203D8B600A6197268D3821F
:1041D800B3490AA815F0F4FD2CE7B24DD3E7B14B6B
:1041E800E3E7B14944A815F080FD44A90AA815F0F1
:1041F80088FE050044A815F02AFD002D43D020684C
:1042080003681D6A072310AA2C21A847431E052B03
:104218000BD810AB00221A54180016F05DF805B23E
:104228006EB216F02FF8070007E09E4DF8E72068F9
:1042380003685B6998470A2816D016F023F8C01B54
:10424800FA239B0098420FD216F01CF8C01BFA23E1
:104258009B009842EBD2206803681B6998470028A6
:10426800E5D116F013F8EFE7EDB2092D06D8B60040
:10427800A6197368002B01D000221A7788490AA86A
:1042880015F09EFDD6E6894947A815F02EFD47A9E9
:104298000AA815F036FE050047A815F0D8FC002D31
:1042A80000D1C7E62000FCF769FD061E04D07C4952
:1042B8000AA815F085FDBDE6E56A7D49206815F078
:1042C8001BFB7C49206815F017FB2900206815F0B6
:1042D80013FB20680368DB689847002015F0D6FFB9
:1042E8006F490DA815F001FD40210DA815F0D1FC6E
:1042F80015F0C8FF0490002015F0C8FF08E035004D
:1043080026E068495AE067486CE00DA815F0C5FD3D
:10431800206803681B699847002800DC69E10020D1
:1043280015F0B4FF206803685B69984743B2002B17
:10433800EEDDC1B20DA815F091FD5F494AA815F050
:10434800D4FC4AA90DA815F0DCFD0028D7D001251A
:104358004AA815F07CFC002D00D05AE157494DA819
:1043680015F0C3FC4DA90DA815F0CBFD002800D011
:1043780001354DA815F06BFC002D00D049E15049DE
:1043880050A815F0B2FC50A90DA815F0BAFD05000B
:1043980050A815F05CFC002D34D0206803681D6A15
:1043A800072310AA2C21A847431E052BA9D810AB18
:1043B80000221A54180015F08FFF01B249B20129E2
:1043C800A3D1206803681D6A072310AA0931A847EA
:1043D800431E052B97D810AB00221A54180015F06D
:1043E8007BFF00B243B2C0B2092806D89B00E3188D
:1043F8005B68002B01D001225A7729490DA815F0D6
:10440800DFFC85E7254953A815F06FFC53A90DA8D3
:1044180015F077FD050053A815F019FC002D53D0B1
:10442800206803681D6A072310AA2C21A847431E89
:10443800052B31D810AB00221A54180015F04CFF88
:1044480005B26FB2206803681B6A9846072310AA52
:104458000A21C047431E052B34D810AB00221A543A
:10446800180015F039FF03B2EDB2092D0FD8BA00C4
:10447800A2185268002A0AD0012151779BB28022E3
:10448800D200934203D8BF00E7197A68D38204495F
:104498000DA815F095FC3BE7024DD2E7B0B6010830
:1044A80038BC0108F1D8FFFFBCB60108C8B601083E
:1044B800D4B60108D8B60108E4B60108ECBA010878
:1044C800A0B60108CD4BCFE7CD4956A815F00DFC95
:1044D80056A90DA815F015FD050056A815F0B7FB4F
:1044E800002D44D0206803681D6A072310AA2C21D8
:1044F800A847431E052B0BD810AB00221A541800EE
:1045080015F0EAFE05B26FB215F0BCFE804617E062
:10451800BA4DF8E715F0BAFE15F0B4FE4346C01AD6
:10452800FA239B00984205D2206803681B699847C4
:104538000028EFD0206803685B6998470A2807D0ED
:1045480015F0A0FE4346C01AFA239B009842E3D315
:10455800EDB2092D06D8BF00E7197B68002B01D002
:1045680000221A77A7490DA815F02AFCD0E6A6491B
:1045780059A815F0BAFB59A90DA815F0C2FC0500F9
:1045880059A815F064FB002D00D1C1E62000FCF706
:10459800F5FB002804D09B490DA815F011FCB7E6DF
:1045A800E56A9A49206815F0A7F99949206815F035
:1045B800A3F92900206815F09FF920680368DB68D3
:1045C8009847002015F062FE8E4910A815F08DFB63
:1045D800FA2100230393029301938E4B00938E4B91
:1045E80010AAC9002000FCF74FFF10A815F02FFBF8
:1045F800D1E715F047FE049BC01AFA23DB00984266
:1046080000D278E60DA815F0E3FC7E490DA815F058
:10461800D7FB0DA815F01BFB49E615F033FE5346F2
:10462800C01AFA239B00984200D2F6E40AA815F0B3
:10463800CFFC74490AA815F0C3FB0AA815F007FBBC
:10464800FFF7E1FB4D4600236B662B662C69C846D5
:1046580000F0E8FC694939E068484BE007A815F024
:104668001CFC206803681B699847002801DC00F0DF
:10467800C3FC002015F00AFE206803685B699847B0
:1046880043B2002BEDDDC1B207A815F0E7FB634983
:104698005CA815F02AFB5CA907A815F032FC0500F8
:1046A8005CA815F0D4FA002D34D0206803681D6A80
:1046B800072310AA2C21A847431E052BCAD810ABE4
:1046C80000221A54180015F007FE01B249B2012958
:1046D800C4D1206803681D6A072310AA0931A847B6
:1046E800431E052BB8D810AB00221A54180015F039
:1046F800F3FD00B243B2C0B2092806D89B00E31804
:104708005B68002B01D001225A773E4907A815F0B3
:1047180057FBA6E742495FA815F0E7FA5FA907A883
:1047280015F0EFFB05005FA815F091FA002D3ED0BB
:10473800206803681D6A072310AA2C21A847431E76
:10474800052B30D810AB00221A54180015F0C4FD00
:1047580005B26EB2206803681F6A072310AA0A21EF
:10476800B847431E052B20D810AB00221A54180056
:1047780015F0B2FD03B2EDB2092D0FD8B200A218A0
:104788005268002A0AD0012151779BB28022D200B8
:10479800934203D8B200A2185268D382194907A8D5
:1047A80015F00EFB5DE7154DD3E7144BE3E714490D
:1047B80062A815F09AFA62A907A815F0A2FB0500ED
:1047C80062A815F044FA002D57D0206803681D6AC6
:1047D800072310AA2C21A847431E052B0BD810AB82
:1047E80000221A54180015F077FD05B26EB215F0C4
:1047F80049FD07002BE0014DF8E7C046F1D8FFFF5F
:10480800BCB6010838BC0108C8B60108D4B601080E
:10481800D8B60108ECBA0108E4B60108A0B6010848
:10482800B0B6010815F032FD15F02CFDC01BFA23B7
:104838009B00984205D2206803681B6998470028A6
:10484800F0D0206803685B6998470A2806D015F0FD
:1048580019FDC01BFA239B009842E5D3EDB2092D40
:1048680006D8B300E3185B68002B01D000221A7742
:10487800D24907A815F0A4FAF3E6D14965A815F0BE
:1048880034FA65A907A815F03CFB060065A815F0E1
:10489800DEF9002E00D1E4E6E66ACA49206815F080
:1048A8002BF8C949206815F027F83100206815F061
:1048B80023F820680368DB689847002015F0E6FCB9
:1048C800BE490AA815F011FA40210AA815F0E1F925
:1048D80015F0D8FC8046002015F0D8FC72E00026C0
:1048E80091E0BA49C7E0206803681E6A072310AA46
:1048F8000931B047431E052B16D810AB00221A54B5
:10490800180015F0E9FC00B243B2C0B2092806D875
:104918009B00E3185B68002B01D001225A77A74956
:104928000AA815F04DFA4DE0A848EDE7A84971A886
:1049380015F0DBF971A90AA815F0E3FA060071A8C9
:1049480015F085F9002E00D1A1E0206803681E6AE1
:10495800072310AA2C21B047431E052B00D992E04B
:1049680010AB00221A54180015F0B6FC06B277B244
:10497800206803681B6A9A46072310AA0A21D047B1
:10498800431E052B00D980E010AB00221A541800F2
:1049980015F0A2FC03B2F6B2092E0FD8BA00A2187D
:1049A8005268002A0AD0012151779BB28022D20096
:1049B800934203D8BF00E7197A68D3827F490AA8CF
:1049C80015F0FEF9206803681B699847002800DC89
:1049D80088E2002015F05AFC206803685B69984754
:1049E80043B2002BEEDDC1B20AA815F037FA7949B7
:1049F80068A815F07AF968A90AA815F082FA0028BB
:104A080000D16CE7012668A815F021F9002E00D026
:104A180079E271496BA815F068F96BA90AA815F035
:104A280070FA002800D001366BA815F010F9002E96
:104A380000D078E269496EA815F057F96EA90AA85E
:104A480015F05FFA06006EA815F001F9002E00D1E6
:104A58006CE7206803681E6A072310AA2C21B04758
:104A6800431E052B00D93CE710AB00221A5418004E
:104A780015F032FC01B249B2012900D133E70AA886
:104A880015F00BFA9EE7514E71E7504B83E75449F6
:104A980074A815F02AF974A90AA815F032FA0600C4
:104AA80074A815F0D4F8002E44D0206803681E6A54
:104AB800072310AA2C21B047431E052B0BD810AB97
:104AC80000221A54180015F007FC06B277B215F048
:104AD800D9FB824617E03D4EF8E715F0D7FB15F0F5
:104AE800D1FB5346C01AFA239B00984205D220688E
:104AF80003681B6998470028EFD0206803685B6942
:104B080098470A2807D015F0BDFB5346C01AFA2368
:104B18009B009842E3D3F6B2092E06D8BB00E318EF
:104B28005B68002B01D000221A7724490AA815F0E7
:104B380047F947E7224977A815F0D7F877A90AA8CF
:104B480015F0DFF9060077A815F081F8002E00D1DE
:104B580038E72000FCF712F90590002804D017491F
:104B68000AA815F02DF92DE7E66A1649206814F011
:104B7800C3FE1C49206814F0BFFE3100206814F001
:104B8800BBFE20680368DB689847002015F07EFBB1
:104B98000A490DA815F0A9F840210DA815F079F8D3
:104BA80015F070FB0700002015F070FB1FE0059E54
:104BB8003DE0064971E0054884E0C04638BC01087C
:104BC800C8B60108D4B60108F4B60108F1D8FFFF49
:104BD800B0B6010800B70108ECBA0108A0B6010890
:104BE800BCB60108D8B601080DA815F056F920681A
:104BF80003681B699847002800DC60E1002015F075
:104C080045FB206803685B69984743B2002BEEDDDB
:104C1800C1B20DA815F022F9C4497AA815F065F8B3
:104C28007AA90DA815F06DF90028C0D001267AA838
:104C380015F00DF8002E00D050E1BD497DA815F003
:104C480054F87DA90DA815F05CF9002800D00136AC
:104C58007DA814F0FCFF002E00D03FE1B54980A8E4
:104C680015F043F880A90DA815F04BF9060080A8A7
:104C780014F0EDFF002E35D0206803681E6A072364
:104C880010AA2C21B047431E052B92D810AB002246
:104C98001A54180015F020FB01B249B20129A3D11A
:104CA800206803681E6A072310AA0931B047431E0B
:104CB800052B00D97FE710AB00221A54180015F015
:104CC8000BFB00B243B2C0B2092806D89B00E31818
:104CD8005B68002B01D001225A7797490DA815F07F
:104CE8006FF884E7954983A814F0FFFF83A90DA8FE
:104CF80015F007F9060083A814F0A9FF002E42D08A
:104D0800206803681E6A072310AA2C21B047431E97
:104D1800052B34D810AB00221A54180015F0DCFA11
:104D280006B273B29A46206803681B6A9B4607233B
:104D380010AA0A21D847431E052B22D810AB0022FF
:104D48001A54180015F0C8FA03B2F6B2092E11D891
:104D580052469200A2185268002A0BD001215177BE
:104D68009BB28022D200934204D852469200A218E5
:104D78005268D38270490DA815F022F837E7704EB3
:104D8800CFE76F4BE1E76F4986A814F0AEFF86A91D
:104D98000DA815F0B6F8060086A814F058FF002EE6
:104DA8004BD0206803681E6A072310AA2C21B0473D
:104DB800431E052B10D810AB00221A54180015F00A
:104DC8008BFA06B273B29A4615F05CFA4B46B946AE
:104DD800370006009B4616E0594EF3E715F056FAE1
:104DE80015F050FA801BFA239B00984205D22068E0
:104DF80003681B6998470028F0D0206803685B693E
:104E080098470A2806D015F03DFA801BFA239B0024
:104E18009842E5D33E004F46D946F6B2092E07D848
:104E280053469B00E3185B68002B01D000221A77D9
:104E380041490DA814F0C4FFD9E6434989A814F0E4
:104E480054FF89A90DA815F05CF8060089A814F08C
:104E5800FEFE002E00D1CAE62000FBF78FFF0028D7
:104E680004D035490DA814F0ABFFC0E6E66A37490F
:104E7800206814F041FD3649206814F03DFD3100EA
:104E8800206814F039FD20680368DB689847002023
:104E980015F0FCF9284910A814F027FFFA2100237F
:104EA800039302930193224B0093204B10AAC9004D
:104EB8002000FCF7E9FA10A814F0C9FED1E715F0B4
:104EC800E1F9C01BFA23DB00984200D26BE60DA87B
:104ED80015F07EF818490DA814F072FF0DA814F00B
:104EE800B6FE3CE615F0CEF94346C01AFA239B00FD
:104EF800984200D2EFE40AA815F06AF80E490AA809
:104F080014F05EFF00E001256DB20AA814F09FFEC0
:104F1800012D1FD00023002B4ED0074907A814F0FD
:104F28004FFFFFF79EFB0225EEE7C046E4B60108F7
:104F3800ECBA0108A0B6010838BC0108B0B60108EF
:104F4800F1D8FFFFBCB60108C8B60108D4B60108FD
:104F5800D8B60108554B9846554FFA26B600002595
:104F68000295019500953A0031002000FBF75AFBA5
:104F7800E36A9A464F49206814F0BEFC4E492068FF
:104F880014F0BAFC5146206814F0B6FC2068036897
:104F9800DB689847002015F079F90295019500958E
:104FA80043463A0031002000FBF73CFB012801D1C1
:104FB8000123B0E70023AEE7E56A3E49206814F014
:104FC8009BFC3E49206814F097FC2900206814F0E7
:104FD80093FC20680368DB689847002015F056F9B1
:104FE800FA210023029301930093304B344AC900FD
:104FF8002000FBF717FB90E715F044F9049BC01A53
:10500800312804D8002015F041F9FFF72AFBC846DB
:1050180007A814F0DDFF2B4907A814F0D1FE07A854
:1050280014F015FE206803681B69984700280CD007
:10503800244907A814F059FE402107A814F029FEB6
:1050480015F020F90490C146DCE745462C692F7D10
:10505800E66A1849206814F04FFC1B49206814F0D0
:105068004BFC0A223900206814F01DFD310020682D
:1050780014F042FC20680368DB689847002015F0AC
:1050880005F900232B772869FA21029301930093ED
:10509800064B074A8900FBF7C5FA8D239B009D4400
:1050A800F0BCBB46B246A946A046F0BDECBA010822
:1050B800E4BA0108D4B6010810B70108D8B6010847
:1050C800E4B6010838BC0108B8B901080B680268E1
:1050D800934200D208007047F0B5DE4657464E4668
:1050E8004546E0B5B54CA544040000231F0000F078
:1050F80002FF002526E0B2495AE0B1486CE00DA84D
:1051080014F0CBFE206803681B699847002800DC70
:10511800DDE2002015F0BAF8206803685B6998475B
:1051280043B2002BEEDDC1B20DA814F097FEA549DD
:1051380016A814F0DAFD16A90DA814F0E2FE00284E
:10514800D7D0059D16A814F082FD002D00D0D2E21C
:105158009D4919A814F0C9FD19A90DA814F0D1FE8C
:10516800002800D0059D19A814F071FD002D00D06D
:10517800F4E296491CA814F0B8FD1CA90DA814F077
:10518800C0FE05001CA814F062FD002D34D0206874
:1051980003681D6A072313AA2C21A847431E052B61
:1051A800A9D813AB00221A54180015F095F801B2CB
:1051B80049B20129A3D1206803681D6A072313AAED
:1051C8000931A847431E052B97D813AB00221A5460
:1051D800180015F081F800B243B2C0B2092806D809
:1051E8009B00E3185B68002B01D001225A777849AD
:1051F8000DA814F0E5FD85E776491FA814F075FDA4
:105208001FA90DA814F07DFE05001FA814F01FFDAE
:10521800002D3ED0206803681D6A072313AA2C219D
:10522800A847431E052B30D813AB00221A54180088
:1052380015F052F805B26EB2206803681F6A07239A
:1052480013AA0A21B847431E052B20D813AB002206
:105258001A54180015F040F803B2EDB2092D0FD812
:10526800B200A2185268002A0AD0012151779BB2D5
:105278008022D200934203D8B600A6197268D3825E
:1052880053490DA814F09CFD3CE74D4DD3E74C4B1A
:10529800E3E7514922A814F028FD22A90DA814F02B
:1052A80030FE050022A814F0D2FC002D43D020685F
:1052B80003681D6A072313AA2C21A847431E052B40
:1052C8000BD813AB00221A54180015F005F805B2D4
:1052D8006EB214F0D7FF070007E0394DF8E72068F1
:1052E80003685B6998470A2816D014F0CBFFC01BE7
:1052F800FA239B0098420FD214F0C4FFC01BFA2374
:105308009B009842EBD2206803681B6998470028E5
:10531800E5D114F0BBFFEFE7EDB2092D06D8B300D5
:10532800E3185B68002B01D000221A7728490DA8E2
:1053380014F046FDE6E6294925A814F0D6FC25A96F
:105348000DA814F0DEFD050025A814F080FC002D42
:1053580000D1D7E62000FBF711FD0790002804D004
:105368001B490DA814F02CFDCCE6E56A1C49206801
:1053780014F0C2FA1B49206814F0BEFA290020680C
:1053880014F0BAFA20680368DB689847002014F024
:105398007DFF0F4910A814F0A8FC402110A814F0B4
:1053A80078FC14F06FFF0690002014F06FFF1EE0E9
:1053B800079D3CE0024970E0014883E0C4FDFFFF1F
:1053C800F1D8FFFFACB90108ECBA0108A0B6010892
:1053D80038BC0108B0B60108BCB60108C8B6010857
:1053E800D4B60108D8B6010810A814F056FD2068F4
:1053F80003681B699847002800DC54E1002014F07A
:1054080045FF206803685B69984743B2002BEEDDCF
:10541800C1B210A814F022FDD44928A814F065FCE4
:1054280028A910A814F06DFD0028C1D0059D28A852
:1054380014F00DFC002D00D045E1CD492BA814F047
:1054480054FC2BA910A814F05CFD002800D0059D81
:105458002BA814F0FCFB002D00D034E1C5492EA880
:1054680014F043FC2EA910A814F04BFD05002EA83B
:1054780014F0EDFB002D35D0206803681D6A072362
:1054880013AA2C21A847431E052B93D813AB00223F
:105498001A54180014F020FF01B249B20129A3D10F
:1054A800206803681D6A072313AA0931A847431E09
:1054B800052B00D980E713AB00221A54180014F00A
:1054C8000BFF00B243B2C0B2092806D89B00E3180C
:1054D8005B68002B01D001225A77A74910A814F065
:1054E8006FFC84E7A54931A814F0FFFB31A910A887
:1054F80014F007FD050031A814F0A9FB002D3ED0DB
:10550800206803681D6A072313AA2C21A847431E95
:10551800052B30D813AB00221A54180014F0DCFE07
:1055280005B26EB2206803681F6A072313AA0A210E
:10553800B847431E052B20D813AB00221A54180075
:1055480014F0CAFE03B2EDB2092D0FD8B200A218AA
:105558005268002A0AD0012151779BB28022D200DA
:10556800934203D8B600A6197268D382824910A85C
:1055780014F026FC3BE7824DD3E7814BE3E78149F2
:1055880034A814F0B2FB34A910A814F0BAFC050032
:1055980034A814F05CFB002D43D0206803681D6A12
:1055A800072313AA2C21A847431E052B0BD813AB9E
:1055B80000221A54180014F08FFE05B26EB214F0CF
:1055C80061FE070007E06E4DF8E7206803685B6935
:1055D80098470A2816D014F055FEC01BFA239B00E2
:1055E80098420FD214F04EFEC01BFA239B0098423B
:1055F800EBD2206803681B6998470028E5D114F0AE
:1056080045FEEFE7EDB2092D06D8B600A619736876
:10561800002B01D000221A77574910A814F0D0FBAC
:10562800E5E6594937A814F060FB37A910A814F02B
:1056380068FC050037A814F00AFB002D00D1D6E657
:105648002000FBF79BFB002804D04B4910A814F05E
:10565800B7FBCCE6E56A4D49206814F04DF94C4992
:10566800206814F049F92900206814F045F92068E9
:105678000368DB689847002014F008FE3E4913A829
:1056880014F033FBFA210023039302930193384B60
:105698000093364B13AAC9002000FBF7F5FE13A8A8
:1056A80014F0D5FAD1E714F0EDFD069BC01AFA23E1
:1056B800DB00984200D277E610A814F089FC2E4946
:1056C80010A814F07DFB10A814F0C1FA48E614F0F5
:1056D800D9FD5346C01AFA239B00984201D200F024
:1056E80045FC4F460DA814F073FC23490DA814F08F
:1056F80067FB002501E04F4601256DB20DA814F0A7
:10570800A6FA012D2DD000239A465B469B00E3188C
:105718005B680693E56A1D49206814F0EDF81D4999
:10572800206814F0E9F82900206814F0E5F82068EA
:105738000368DB689847002014F0A8FD0E490DA8FF
:1057480014F0D3FA40210DA814F0A3FA14F09AFD2E
:105758000790B946002014F099FDF1E04F46022564
:10576800CBE714F08FFD05001CE0C046E4B6010845
:10577800ECBA0108A0B6010838BC0108B0B60108A7
:10578800F1D8FFFFBCB60108C8B60108D4B60108B5
:10579800D8B60108D4B90108206803685B6998473E
:1057A8002C2816D014F06EFD401BFA239B0098425B
:1057B8000FD214F067FD401BFA239B009842EBD2EE
:1057C800206803681B6998470028E5D114F05EFD3E
:1057D800EFE714F057FD050005E0206803685B69F2
:1057E80098472C2816D014F04DFD401BFA239B0037
:1057F80098420FD214F046FD401BFA239B009842B2
:10580800EBD2206803681B6998470028E5D114F09B
:105818003DFDEFE7206803681D6A072313AA0A21E4
:10582800A847431E052B17D813AB00221A5418009B
:1058380014F052FD00B205008246FA2100230293BB
:1058480001930093BB4BBC4A89002000FAF7EAFE9B
:10585800002D00D04BE358E7B848ECE7002590E06E
:10586800B649C6E0206803681D6A072313AA0931F0
:10587800A847431E052B16D813AB00221A5418004C
:1058880014F02AFD00B243B2C0B2092806D89B0022
:10589800E3185B68002B01D001225A77A8490DA8AC
:1058A80014F08EFA4CE0A548EDE7A64943A814F099
:1058B8001CFA43A90DA814F024FB050043A814F012
:1058C800C6F9002D00D1A0E0206803681D6A0723EF
:1058D80013AA2C21A847431E052B00D991E013AB2E
:1058E80000221A54180014F0F7FC05B26EB22068B2
:1058F80003681F6A072313AA0A21B847431E052B0A
:1059080000D980E013AB00221A54180014F0E4FC0C
:1059180003B2EDB2092D0FD8B200A2185268002ABE
:105928000AD0012151779BB28022D200934203D83A
:10593800B600A6197268D38281490DA814F040FAFE
:10594800206803681B699847002800DC7AE2002079
:1059580014F09CFC206803685B69984743B2002BED
:10596800EEDDC1B20DA814F079FA77493AA814F01F
:10597800BCF93AA90DA814F0C4FA002800D16DE7C3
:10598800059D3AA814F063F9002D00D06CE269492E
:105998003DA814F0AAF93DA90DA814F0B2FA002800
:1059A80000D0059D3DA814F052F9002D00D062E208
:1059B800664940A814F099F940A90DA814F0A1FA75
:1059C800050040A814F043F9002D00D16DE72068C8
:1059D80003681D6A072313AA2C21A847431E052B19
:1059E80000D93DE713AB00221A54180014F074FCD8
:1059F80001B249B2012900D134E70DA814F04DFADB
:105A08009EE74E4D72E74D4B83E7514946A814F087
:105A18006CF946A90DA814F074FA050046A814F00C
:105A280016F9002D43D0206803681D6A072313AABE
:105A38002C21A847431E052B0BD813AB00221A5460
:105A4800180014F049FC05B26EB214F01BFC0700F4
:105A580007E03A4DF8E7206803685B6998470A2829
:105A680016D014F00FFCC01BFA239B0098420FD2EB
:105A780014F008FCC01BFA239B009842EBD2206864
:105A880003681B6998470028E5D114F0FFFBEFE78E
:105A9800EDB2092D06D8B300E3185B68002B01D0DE
:105AA80000221A7726490DA814F08AF948E72949EF
:105AB80049A814F01AF949A90DA814F022FA05000A
:105AC80049A814F0C4F8002D00D139E72000FBF7ED
